:020000040000FA
:0600000000F056EF00F0D5
:10000800FFFF1182F2A80BEF00F00EEF00F0FFFFE8
:1000180021EF00F0FFFFF2A214EF00F017EF00F05D
:10002800FFFF21EF00F0FFFF000E0E6E000E0D6EB9
:10003800000E0C6E010E0B6EF292FFFFF0A627EF7A
:1000480000F02AEF00F0FFFF39EF00F0FFFFF0A00B
:1000580030EF00F033EF00F0FFFF39EF00F0FFFF63
:10006800000E0C6E000E0B6EF090FFFFF0A83FEF35
:1000780000F042EF00F0FFFF51EF00F0FFFFF0A2A9
:1000880048EF00F04BEF00F0FFFF51EF00F0FFFFEB
:10009800000E0C6E010E0B6EF092FFFF1192110014
:1000A800FFFFFFFF96EF00F0FFFFADEC00F0BAECAA
:1000B80000F0FFFF0B500C10D8B465EF00F068EFAC
:1000C80000F0FFFF5DEF00F0FFFF0E500AE10A0E9F
:1000D8000D5CD8A072EF00F075EF00F0FFFF7AEF2B
:1000E80000F0FFFF000E0E6E000E0D6EFFFF010EFA
:1000F8000D24D96EDA6A000EDA22DF50826E0D4ABC
:100108000E2A040E106ECF0E0F6EA50EFFFFE82EFE
:10011800FDD70F2EFBD7102EF9D700D05DEF00F0DA
:1001280056EF00F0680EF66E010EF76E000EF86ED0
:1001380000EE01F010EE0CF00900F5CFEEFFE550EF
:10014800E150FAE10E6A0D6A11901192000158EF20
:1001580000F0FFFFF28EF288F086F0881200FFFFB1
:10016800C0F9A4B0999282F880900100FFFF000EB8
:08017800946E1200FFFFFFFF6F
:020000040020DA
:08000000FFFFFFFFFFFFFFFF00
:020000040030CA
:0E000000FF270F0EFF0185FF0FC00FE00F401E
:00000001FF
